:1000000045C0000060C000005EC000005CC0000091
:100010005AC0000058C0000056C0000054C0000084
:1000200052C0000050C000004EC000004CC0000094
:100030004AC0000048C000002AC1000044C00000BF
:1000400042C0000040C000003EC000003CC00000B4
:100050003AC0000038C0000036C0000034C00000C4
:1000600032C0000030C000002EC000002CC00000D4
:100070002AC0000028C0000026C0000024C00000E4
:1000800022C0000020C000001EC0000011241FBEBE
:10009000CFEFD0E1DEBFCDBF11E0A0E0B1E0EEE4F4
:1000A000F4E000E00BBF02C007900D92A435B10749
:1000B000D9F721E0A4E5B1E001C01D92A535B20752
:1000C000E1F78AD1C2C19CCF90910801992331F107
:1000D000E82FF0E0EE0FFF1FE65FFE4F40815181F9
:1000E000E0910001F0E0EE0FFF1FE65FFE4F208180
:1000F000318124173507A0F4E1E0F1E060E06F5FA3
:10010000691779F0A191B0E0AA0FBB1FA65FBE4F9F
:100110002D913C912417350790F303C0692F01C03E
:1001200060E0F894691768F4292FE22FF0E0E050BE
:10013000FF4FDF0111973C91308321502613F5CFFB
:1001400001C0692FE62FF0E0E050FF4F80837894E4
:100150009F5F9093080108959B012A5031092D302B
:100160003E44B0F5909154019923E1F3F894309115
:100170000801332309F190910001981317C004C0BE
:100180002191281316C001C090E09F5F931750F48F
:10019000E92FF0E0E050FF4F2081319720839F5FEF
:1001A0009313F6CF31503093080106C0E1E0F1E03F
:1001B00090E09F5F9313E4CF7894E82FF0E0EE0F88
:1001C000FF1FE65FFE4F718360837EDF80E008954E
:1001D00081E008956623C1F097E0899FD001112442
:1001E000A45EBE4F1296ED91FC911397408121E0E1
:1001F00030E0C90116960C9002C0880F991F0A942E
:10020000E2F7842B8083089597E0899FD001112421
:10021000A45EBE4F1296ED91FC911397408121E0B0
:1002200030E0C90116960C9002C0880F991F0A94FD
:10023000E2F78095842380830895662319F0613066
:10024000D1F0089597E0899FD0011124A45EBE4F9C
:10025000ED91FC911197908141E050E09A01169642
:100260000C9002C0220F331F0A94E2F7292B20833F
:1002700060E0B0CF089528CF08958FED91EB9DBD3C
:100280008CBD82E08EBD87B7846087BF08951F92C2
:100290000F920FB60F9211240BB60F921F932F934C
:1002A0003F934F935F936F937F938F939F93AF93FE
:1002B000BF93CF93DF93EF93FF938091080188233F
:1002C00009F470C0E0910901E93011F51092540170
:1002D000882371F010E0C8E0D1E0E12FF0E0E050B9
:1002E000FF4F61E0808176DF1F5F88811817A8F3D8
:1002F00010920901E0910001F0E0EE0FFF1FE65FB0
:10030000FE4F80819181809590959DBD8CBD4EC0A2
:10031000F0E0E050FF4F60E080815CDF80910901F8
:1003200090E02091080130E02150310982179307B5
:10033000FCF4FC01E050FF4FA181B0E0AA0FBB1F0D
:10034000A65FBE4FE081F0E0EE0FFF1FE65FFE4FBD
:100350008D919C9120813181821B930B809590958A
:100360009DBD8CBDE9E0F1E080818F5F80831EC080
:10037000FC01E050FF4FE081F0E0EE0FFF1FE65F71
:10038000FE4F2081318180E29EE4821B930B809599
:1003900090959DBD8CBD89E08093090181E080939B
:1003A000540104C08FED91EB9DBD8CBDFF91EF9189
:1003B000DF91CF91BF91AF919F918F917F916F917D
:1003C0005F914F913F912F911F910F900BBE0F9016
:1003D0000FBE0F901F9018958FEF9FE09EBF8DBFAF
:1003E00060E080E02ADF61E080E027DF46DF78948C
:1003F000C0E5D6E4D0931B01C0931A0180911A0185
:1004000090911B0188339A44A8F78FEF94E32CE076
:10041000815090402040E1F700C0000060911A0137
:1004200070911B0180E098DE80911A0190911B0170
:10043000C29690931B0180931A0180911A019091AA
:0E0440001B0188339A4408F3D5CFF894FFCF00
:10044E00000000000000000000092003BC0258025A
:10045E00F40190012C01C800640010273A003B0003
:10046E003900003A003B003900013A003B003900E8
:10047E0002340035003300003400350033000134FF
:10048E000035003300023A003B003900033A003BCE
:04049E00003900041D
:00000001FF
