:1000000045C0000060C000005EC000005CC0000091
:100010005AC0000058C0000056C0000054C0000084
:1000200052C0000050C000004EC000004CC0000094
:100030004AC0000048C000002AC1000044C00000BF
:1000400042C0000040C000003EC000003CC00000B4
:100050003AC0000038C0000036C0000034C00000C4
:1000600032C0000030C000002EC000002CC00000D4
:100070002AC0000028C0000026C0000024C00000E4
:1000800022C0000020C000001EC0000011241FBEBE
:10009000CFEFD0E1DEBFCDBF11E0A0E0B1E0E8EBF3
:1000A000F5E000E00BBF02C007900D92A235B1074A
:1000B000D9F721E0A2E5B1E001C01D92A335B20756
:1000C000E1F75AD277C29CCF90910801992331F180
:1000D000E82FF0E0EE0FFF1FE65FFE4F40815181F9
:1000E000E0910001F0E0EE0FFF1FE65FFE4F208180
:1000F000318124173507A0F4E1E0F1E060E06F5FA3
:10010000691779F0A191B0E0AA0FBB1FA65FBE4F9F
:100110002D913C912417350790F303C0692F01C03E
:1001200060E0F894691768F4292FE22FF0E0E050BE
:10013000FF4FDF0111973C91308321502613F5CFFB
:1001400001C0692FE62FF0E0E050FF4F80837894E4
:100150009F5F9093080108959B012A5031092D302B
:100160003E44B0F5909152019923E1F3F894309117
:100170000801332309F190910001981317C004C0BE
:100180002191281316C001C090E09F5F931750F48F
:10019000E92FF0E0E050FF4F2081319720839F5FEF
:1001A0009313F6CF31503093080106C0E1E0F1E03F
:1001B00090E09F5F9313E4CF7894E82FF0E0EE0F88
:1001C000FF1FE65FFE4F718360837EDF80E008954E
:1001D00081E008956623C1F097E0899FD001112442
:1001E000A65EBE4F1296ED91FC911397408121E0DF
:1001F00030E0C90116960C9002C0880F991F0A942E
:10020000E2F7842B8083089597E0899FD001112421
:10021000A65EBE4F1296ED91FC911397408121E0AE
:1002200030E0C90116960C9002C0880F991F0A94FD
:10023000E2F78095842380830895662319F0613066
:10024000D1F0089597E0899FD0011124A65EBE4F9A
:10025000ED91FC911197908141E050E09A01169642
:100260000C9002C0220F331F0A94E2F7292B20833F
:1002700060E0B0CF089528CF08958FED91EB9DBD3C
:100280008CBD82E08EBD87B7846087BF08951F92C2
:100290000F920FB60F9211240BB60F921F932F934C
:1002A0003F934F935F936F937F938F939F93AF93FE
:1002B000BF93CF93DF93EF93FF938091080188233F
:1002C00009F470C0E0910901E93011F51092520172
:1002D000882371F010E0C8E0D1E0E12FF0E0E050B9
:1002E000FF4F61E0808176DF1F5F88811817A8F3D8
:1002F00010920901E0910001F0E0EE0FFF1FE65FB0
:10030000FE4F80819181809590959DBD8CBD4EC0A2
:10031000F0E0E050FF4F60E080815CDF80910901F8
:1003200090E02091080130E02150310982179307B5
:10033000FCF4FC01E050FF4FA181B0E0AA0FBB1F0D
:10034000A65FBE4FE081F0E0EE0FFF1FE65FFE4FBD
:100350008D919C9120813181821B930B809590958A
:100360009DBD8CBDE9E0F1E080818F5F80831EC080
:10037000FC01E050FF4FE081F0E0EE0FFF1FE65F71
:10038000FE4F2081318180E29EE4821B930B809599
:1003900090959DBD8CBD89E08093090181E080939B
:1003A000520104C08FED91EB9DBD8CBDFF91EF918B
:1003B000DF91CF91BF91AF919F918F917F916F917D
:1003C0005F914F913F912F911F910F900BBE0F9016
:1003D0000FBE0F901F901895EF92FF920F931F93EF
:1003E000CF93DF93FC01808190E0062E02C09595AB
:1003F00087950A94E2F780FFB3C081E090E09C010A
:1004000002C0220F331F6A95E2F7B90121E030E004
:10041000D4EFC1E0B1E0A0E000E010E092C02B30EA
:10042000310508F48CC04D2F5C2F80C02F5F3F4FEB
:100430002C30310509F05FC041E050E0B1E0A0E0B0
:100440000B2F1A2FDB2FCA2FE12CF12C4BC02B3096
:10045000310568F1402F512F21C02F5F3F4F2C30C5
:10046000310509F47FC08FEC97E00197F1F700C0E8
:100470000000808190E086239723892B71F302C0CE
:100480002E2D3F2D8FEC97E00197F1F700C0000073
:100490004F5F5F4F453F91E0590759F0808190E0F1
:1004A00086239723892B61F72D2F3C2FDCCF2F5FDD
:1004B0003F4F8FEC97E00197F1F700C0000080817B
:1004C00090E086239723892B11F68FEC97E0019714
:1004D000F1F700C00000CA010196443F514008F006
:1004E00043C0AC01808190E086239723892B69F378
:1004F0002B2F3A2FDECF8FEC97E00197F1F700C05A
:100500000000808190E086239723892B09F48ECF09
:1005100002C0202F312F8FEC97E00197F1F700C038
:100520000000415051094115510559F0808190E07A
:1005300086239723892B69F72B2F3A2FDCCF2F5F48
:100540003F4F8FEC97E00197F1F700C000008081EA
:1005500090E086239723892B09F061CF80E005C0C6
:1005600080E003C082E001C081E0DF91CF911F9164
:100570000F91FF90EF9008958FEF9FE09EBF8DBF8A
:1005800060E080E05ADE61E080E057DE76DE78945D
:1005900061E086E390E020DF813029F460E576E4D5
:1005A00080E0DADDF5CF823099F768E37AE480E025
:0805B000D3DDEECFF894FFCF7C
:1005B800000000000000000000092003BC025802EF
:1005C800F40190012C01C80064003A003B00390096
:1005D800003A003B003900013A003B003900023480
:1005E8000035003300003400350033000134003595
:1005F800003300023A003B003900033A003B00395F
:020608000004EC
:00000001FF
