:1000000045C0000060C000005EC000005CC0000091
:100010005AC0000058C0000056C0000054C0000084
:1000200052C0000050C000004EC000004CC0000094
:100030004AC0000048C000001BC1000044C00000CE
:1000400042C0000040C000003EC000003CC00000B4
:100050003AC0000038C0000036C0000034C00000C4
:1000600032C0000030C000002EC000002CC00000D4
:100070002AC0000028C0000026C0000024C00000E4
:1000800022C0000020C000001EC0000011241FBEBE
:10009000CFEFD0E1DEBFCDBF11E0A0E0B1E0ECE0FA
:1000A000F4E000E00BBF02C007900D92A235B1074B
:1000B000D9F721E0A2E5B1E001C01D92A335B20756
:1000C000E1F77BD1A1C19CCF90910801992331F137
:1000D000E82FF0E0EE0FFF1FE65FFE4F40815181F9
:1000E000E0910001F0E0EE0FFF1FE65FFE4F208180
:1000F000318124173507A0F4E1E0F1E060E06F5FA3
:10010000691779F0A191B0E0AA0FBB1FA65FBE4F9F
:100110002D913C912417350790F303C0692F01C03E
:1001200060E0F894691768F4292FE22FF0E0E050BE
:10013000FF4FDF0111973C91308321502613F5CFFB
:1001400001C0692FE62FF0E0E050FF4F80837894E4
:100150009F5F909308010895909152019923E1F3D4
:10016000F89430910801332309F19091000198131C
:1001700017C004C02191281316C001C090E09F5FF2
:10018000931750F4E92FF0E0E050FF4F8081319752
:1001900080839F5F9313F6CF31503093080106C0E0
:1001A000E1E0F1E090E09F5F9313E4CF789408954D
:1001B0006623C1F097E0899FD0011124A65EBE4F4F
:1001C0001296ED91FC911397408121E030E0C90136
:1001D00016960C9002C0880F991F0A94E2F7842BA0
:1001E0008083089597E0899FD0011124A65EBE4FB9
:1001F0001296ED91FC911397408121E030E0C90106
:1002000016960C9002C0880F991F0A94E2F7809509
:100210008423808308956130E9F018F06230E1F0C2
:10022000089597E0899FD0011124A65EBE4FED91FD
:10023000FC911197908141E050E09A0116960C9044
:1002400002C0220F331F0A94E2F7292B208360E0BB
:10025000AFCF089539CF08957FCF08958FED91EBFB
:100260009DBD8CBD82E08EBD87B7846087BF089539
:100270001F920F920FB60F9211240BB60F921F937D
:100280002F933F934F935F936F937F938F939F939E
:10029000AF93BF93CF93DF93EF93FF9380910801C8
:1002A000882309F470C0E0910901E93011F510923A
:1002B0005201882371F010E0C8E0D1E0E12FF0E0B6
:1002C000E050FF4F61E0808173DF1F5F8881181766
:1002D000A8F310920901E0910001F0E0EE0FFF1F7A
:1002E000E65FFE4F80819181809590959DBD8CBD8C
:1002F0004EC0F0E0E050FF4F60E0808159DF809118
:10030000090190E02091080130E021503109821765
:100310009307FCF4FC01E050FF4FA181B0E0AA0F6D
:10032000BB1FA65FBE4FE081F0E0EE0FFF1FE65F50
:10033000FE4F8D919C9120813181821B930B809582
:1003400090959DBD8CBDE9E0F1E080818F5F808359
:100350001EC0FC01E050FF4FE081F0E0EE0FFF1FF8
:10036000E65FFE4F2081318180E29EE4821B930B89
:10037000809590959DBD8CBD89E08093090181E0B9
:100380008093520104C08FED91EB9DBD8CBDFF9118
:10039000EF91DF91CF91BF91AF919F918F917F911D
:1003A0006F915F914F913F912F911F910F900BBED5
:1003B0000F900FBE0F901F9018958FEF9FE09EBF7C
:1003C0008DBFE3E6F0E08081887F808360E080E09D
:1003D00022DF60E081E01FDF60E082E01CDF60E0A0
:1003E00083E019DF60E084E016DF60E085E013DF82
:1003F00060E086E010DF60E087E00DDF2FDF7894BB
:0C04000061E087E008DFFFCFF894FFCF39
:10040C0000000000000000000009424A2E4A50463D
:10041C004C4A444802493408D0073A003B003900A2
:10042C00003A003B003900013A003B00390002342D
:10043C000035003300003400350033000134003542
:10044C00003300022200230021000137003800365F
:02045C0000019D
:00000001FF
