:1000000045C0000060C000005EC000005CC0000091
:100010005AC0000058C0000056C0000054C0000084
:1000200052C0000050C000004EC000004CC0000094
:100030004AC0000048C000001BC1000044C00000CE
:1000400042C0000040C000003EC000003CC00000B4
:100050003AC0000038C0000036C0000034C00000C4
:1000600032C0000030C000002EC000002CC00000D4
:100070002AC0000028C0000026C0000024C00000E4
:1000800022C0000020C000001EC0000011241FBEBE
:10009000CFEFD0E1DEBFCDBF11E0A0E0B1E0E4EAF8
:1000A000F8E000E00BBF02C007900D92A235B10747
:1000B000D9F721E0A2E5B1E001C01D92A335B20756
:1000C000E1F74BD2EDC39CCF90910801992331F118
:1000D000E82FF0E0EE0FFF1FE65FFE4F40815181F9
:1000E000E0910001F0E0EE0FFF1FE65FFE4F208180
:1000F000318124173507A0F4E1E0F1E060E06F5FA3
:10010000691779F0A191B0E0AA0FBB1FA65FBE4F9F
:100110002D913C912417350790F303C0692F01C03E
:1001200060E0F894691768F4292FE22FF0E0E050BE
:10013000FF4FDF0111973C91308321502613F5CFFB
:1001400001C0692FE62FF0E0E050FF4F80837894E4
:100150009F5F909308010895909152019923E1F3D4
:10016000F89430910801332309F19091000198131C
:1001700017C004C02191281316C001C090E09F5FF2
:10018000931750F4E92FF0E0E050FF4F8081319752
:1001900080839F5F9313F6CF31503093080106C0E0
:1001A000E1E0F1E090E09F5F9313E4CF789408954D
:1001B0006623C1F097E0899FD0011124A65EBE4F4F
:1001C0001296ED91FC911397408121E030E0C90136
:1001D00016960C9002C0880F991F0A94E2F7842BA0
:1001E0008083089597E0899FD0011124A65EBE4FB9
:1001F0001296ED91FC911397408121E030E0C90106
:1002000016960C9002C0880F991F0A94E2F7809509
:100210008423808308956130E9F018F06230E1F0C2
:10022000089597E0899FD0011124A65EBE4FED91FD
:10023000FC911197908141E050E09A0116960C9044
:1002400002C0220F331F0A94E2F7292B208360E0BB
:10025000AFCF089539CF08957FCF08958FED91EBFB
:100260009DBD8CBD82E08EBD87B7846087BF089539
:100270001F920F920FB60F9211240BB60F921F937D
:100280002F933F934F935F936F937F938F939F939E
:10029000AF93BF93CF93DF93EF93FF9380910801C8
:1002A000882309F470C0E0910901E93011F510923A
:1002B0005201882371F010E0C8E0D1E0E12FF0E0B6
:1002C000E050FF4F61E0808173DF1F5F8881181766
:1002D000A8F310920901E0910001F0E0EE0FFF1F7A
:1002E000E65FFE4F80819181809590959DBD8CBD8C
:1002F0004EC0F0E0E050FF4F60E0808159DF809118
:10030000090190E02091080130E021503109821765
:100310009307FCF4FC01E050FF4FA181B0E0AA0F6D
:10032000BB1FA65FBE4FE081F0E0EE0FFF1FE65F50
:10033000FE4F8D919C9120813181821B930B809582
:1003400090959DBD8CBDE9E0F1E080818F5F808359
:100350001EC0FC01E050FF4FE081F0E0EE0FFF1FF8
:10036000E65FFE4F2081318180E29EE4821B930B89
:10037000809590959DBD8CBD89E08093090181E0B9
:100380008093520104C08FED91EB9DBD8CBDFF9118
:10039000EF91DF91CF91BF91AF919F918F917F911D
:1003A0006F915F914F913F912F911F910F900BBED5
:1003B0000F900FBE0F901F901895EF92FF920F9322
:1003C0001F93CF93DF93FC01808190E0062E02C043
:1003D000959587950A94E2F780FFB3C081E090E09D
:1003E0009C0102C0220F331F6A95E2F7B90121E098
:1003F00030E0D4EFC1E0B1E0A0E000E010E092C056
:100400002B30310508F48CC04D2F5C2F80C02F5F3E
:100410003F4F2C30310509F05FC041E050E0B1E0C2
:10042000A0E00B2F1A2FDB2FCA2FE12CF12C4BC091
:100430002B30310568F1402F512F21C02F5F3F4FE6
:100440002C30310509F47FC08FEC97E00197F1F76C
:1004500000C00000808190E086239723892B71F3F0
:1004600002C02E2D3F2D8FEC97E00197F1F700C0D1
:1004700000004F5F5F4F453F91E0590759F0808181
:1004800090E086239723892B61F72D2F3C2FDCCF1B
:100490002F5F3F4F8FEC97E00197F1F700C000000E
:1004A000808190E086239723892B11F68FEC97E0CB
:1004B0000197F1F700C00000CA010196443F514086
:1004C00008F043C0AC01808190E086239723892BFC
:1004D00069F32B2F3A2FDECF8FEC97E00197F1F7DE
:1004E00000C00000808190E086239723892B09F4C7
:1004F0008ECF02C0202F312F8FEC97E00197F1F7BC
:1005000000C00000415051094115510559F080814A
:1005100090E086239723892B69F72B2F3A2FDCCF86
:100520002F5F3F4F8FEC97E00197F1F700C000007D
:10053000808190E086239723892B09F061CF80E0AA
:1005400005C080E003C082E001C081E0DF91CF916F
:100550001F910F91FF90EF9008958FEF9FE09EBF46
:100560008DBFE3E6F0E08081887F808360E080E0FB
:1005700052DE60E081E04FDE60E082E04CDE60E071
:1005800083E049DE60E084E046DE60E085E043DE53
:1005900060E086E040DE60E087E03DDE5FDE78948C
:1005A0000F2EFAE0AF2EF1E0BF2EF02D0F2EF2E469
:1005B0008F2EFAE49F2EF02D0F2EFCE0CF2EF1E0CF
:1005C000DF2EF02D0F2EFEE26F2EFAE47F2EF02D9F
:1005D0000F2EFEE0EF2EF1E0FF2EF02D0F2EF0E5B6
:1005E0004F2EF6E45F2EF02D00E111E00F2EFCE41B
:1005F0002F2EFAE43F2EF02DC2E1D1E061E080E23F
:1006000090E0DBDE813099F4F5019182808261E037
:1006100080E001DEFFEF29E688E1F15020408040D4
:10062000E1F700C0000062E080E0F5DD16C0823036
:10063000A1F48CE099E4F5019183808361E080E08E
:10064000EADD9FEFE9E6F8E19150E040F040E1F7A4
:1006500000C0000062E080E0DEDD62E080E290E069
:10066000ACDE813091F4F6017182608261E0D3DD0D
:10067000FFEF29E688E1F15020408040E1F700C01B
:10068000000062E081E0C7DD16C08230A1F48CE793
:1006900097E4F6019183808361E081E0BCDD9FEF08
:1006A000E9E6F8E19150E040F040E1F700C00000D9
:1006B00062E081E0B0DD63E080E290E07EDE8130E8
:1006C00099F4F7015182408261E082E0A4DDFFEFFE
:1006D00029E688E1F15020408040E1F700C00000A9
:1006E00062E082E098DD16C08230A1F486E199E4F0
:1006F000F7019183808361E082E08DDD9FEFE9E681
:10070000F8E19150E040F040E1F700C0000062E005
:1007100082E081DD65E089E390E04FDE813099F48D
:10072000F8013182208261E083E075DDFFEF29E688
:1007300088E1F15020408040E1F700C0000062E015
:1007400083E069DD16C08230A1F48AE596E4F80101
:100750009183808361E083E05EDD9FEFE9E6F8E16D
:100760009150E040F040E1F700C0000062E083E01B
:1007700052DD66E089E390E020DE8130A1F484E47C
:1007800098E49983888361E084E045DD2FEF89E672
:1007900098E1215080409040E1F700C0000062E005
:1007A00084E039DD15C0823099F484E69BE49983B6
:1007B000888361E084E02FDDEFEFF9E628E1E15086
:1007C000F0402040E1F700C0000062E084E023DD5B
:1007D00061E080E390E0F1DD8130B1F482E099E402
:1007E000909315018093140161E085E014DD8FEF93
:1007F00099E6E8E181509040E040E1F700C0000058
:1008000062E085E008DD17C08230A9F488E197E452
:10081000909315018093140161E085E0FCDCFFEF0B
:1008200029E688E1F15020408040E1F700C0000057
:1008300062E085E0F0DC63E080E390E0BEDD8130E3
:10084000B1F484E398E0909317018093160161E07E
:1008500086E0E1DC9FEFE9E6F8E19150E040F0400E
:10086000E1F700C0000062E086E0D5DCC7CE823050
:1008700009F0C4CE8CE291E09093170180931601A9
:1008800061E086E0C8DC2FEF89E698E121508040E6
:100890009040E1F700C0000062E086E0BCDCAECE34
:0408A000F894FFCFFA
:1008A40000000000000000000009424A2E4A5046A1
:1008B4004C4A444802493408D0073A003B00390006
:1008C400003A003B003900013A003B003900023491
:1008D40000350033000034003500330001340035A6
:1008E40000330002220023002100013700380036C3
:0208F400000101
:00000001FF
