S00E00007374616765322E73726563D0
S113000045C0000058C0000056C0000054C00000A5
S113001052C0000050C000004EC000004CC00000A0
S11300204AC0000048C0000046C0000044C00000B0
S113003042C0000040C000007DC000003CC0000081
S11300403AC0000038C0000036C0000034C00000D0
S113005032C0000030C000002EC000002CC00000E0
S11300602AC0000028C0000026C0000024C00000F0
S113007022C0000020C000001EC000001CC0000000
S11300801AC0000018C0000016C0000011241FBED2
S1130090CFEFD0E1DEBFCDBF11E0A0E0B1E0E8E7F3
S11300A0F2E000E00BBF02C007900D92AE33B1073F
S11300B0D9F7DED0DFC0A4CF6623C1F097E0899FD3
S11300C0D0011124AC5EBE4F1296ED91FC911397B2
S11300D0408121E030E0C90116960C9002C0880FDF
S11300E0991F0A94E2F7842B808318C097E0899FB4
S11300F0D0011124AC5EBE4F1296ED91FC91139782
S1130100408121E030E0C90116960C9002C0880FAE
S1130110991F0A94E2F780958423808380E00895F0
S11301208BEE9AEF9DBD8CBD82E08EBD87B7846057
S113013087BF08951F920F920FB60F9211240BB62A
S11301400F921F932F933F934F935F936F937F93DC
S11301508F939F93AF93BF93CF93DF93EF93FF93CB
S113016080910601882309F469C0E0910701E73012
S1130170F1F410E0C6E0D1E0E12FF0E0E050FF4FF1
S113018061E0808199DF1F5F88811817A8F31092BE
S11301900701E0910001F0E0EE0FFF1FE85FFE4F62
S11301A080819181809590959DBD8CBD4BC0F0E080
S11301B0E050FF4F60E080817FDF8091070190E095
S11301C02091060130E02150310982179307FCF495
S11301D0FC01E050FF4FA181B0E0AA0FBB1FA85F54
S11301E0BE4FE081F0E0EE0FFF1FE85FFE4F8D9100
S11301F09C9120813181821B930B809590959DBDAC
S11302008CBDE7E0F1E080818F5F80831BC0FC013F
S1130210E050FF4FE081F0E0EE0FFF1FE85FFE4F7C
S11302202081318184E195E0821B930B8095909528
S11302309DBD8CBD87E08093070104C08BEE9AEFCF
S11302409DBD8CBDFF91EF91DF91CF91BF91AF9197
S11302509F918F917F916F915F914F913F912F91DA
S11302601F910F900BBE0F900FBE0F901F9018950B
S10B027057DFFFCFF894FFCF24
S113027800000000000000075802F40190012C015E
S1130288C80064003A003B003900003A003B0039DA
S113029800013A003B003900023400350033000005
S11102A8340035003300013400350033000209
S9030000FC
